:02000002B0004C
:1040000000400B000E530B00000006000C000502E0
:084010000401B41400000000DB
:0440180024500B0025
:10401C00034613F8012B002AFBD1181A01387047FC
:10402C0009480A49884208B505D0094A824202D09B
:10403C00121A00F047FF0748074A0021121A00F035
:10404C004FFF014808BD00BF3CE6032074520B0033
:10405C00A8E60320A8E60320F0E7032070B5074E7E
:10406C00074C00F0FBFDA41BA4080025AC4200D1BA
:10407C0070BD56F8043B98470135F7E72C520B00FE
:10408C0050520B0000F013B808B500F021F8BDE851
:10409C00084000F09BBD00F0F5B900F0FBB90078CA
:1040AC00B0FA80F04009704701230370704708B5DF
:1040BC000021084600F042FE0121084600F03EFEB9
:1040CC0000F0FEFCBDE808404FF4165100F0ECBCCB
:1040DC0070B5002000F05CFE01280F4D04460CD199
:1040EC000E4E33784BB900F0EBFC0D4900F0E3FBBE
:1040FC002B78347083F001032B70002000F048FE05
:10410C0008B9064B1870297801B10121BDE870403F
:10411C00012000F024BE00BFB5E60320B4E6032066
:10412C0038500B0010B5074B074A9A600024C3E9BE
:10413C000044032000F01AF921460120BDE810408C
:10414C0000F01CB9A8E603200000FFFF08B5024BE5
:10415C001B685B6C019308BD4802030008B5024B59
:10416C001B685B68019308BD1802030008B5024B7D
:10417C001B685B69019308BD1802030008B5024B6C
:10418C001B689B68019308BD2C02030008B5024B09
:10419C001B68DB68019308BD2C02030008B5024BB9
:1041AC001B681B69019308BD2C02030008B5024B68
:1041BC001B685B69019308BD2C02030008B5024B18
:1041CC001B681B6A019308BD2802030008B5024B4B
:1041DC001B685B6A019308BD2802030008B5024BFB
:1041EC001B689B6A019308BD2802030008B5024BAB
:1041FC001B68DB6A019308BD2802030008B5024B5B
:10420C001B681B6B019308BD2802030008B5024B09
:10421C001B685B6B019308BD2802030008B5024BB9
:10422C001B681B6C019308BD2802030008B5024BE8
:10423C001B685B69019308BD6402030008B5024B5F
:10424C001B689B68019308BD6802030008B5024B0C
:10425C001B68DB68019308BD6802030008B5024BBC
:10426C001B68DB69019308BD3002030008B5024BE3
:10427C001B681B6A019308BD3002030008B5024B92
:10428C001B68DB68019308BD3C02030008B5024BB8
:10429C001B681B69019308BD3C02030008B5024B67
:1042AC001B685B69019308BD3C02030008B5024B17
:1042BC001B689B69019308BD3C02030008B5024BC7
:1042CC001B68DB69019308BD3C02030008B5024B77
:1042DC001B681B6A019308BD3C02030008B5024B26
:1042EC001B689B6A019308BD3C02030008B5024B96
:1042FC001B681B6C019308BD3C02030008B5024B04
:10430C001B681B68019308BD4C02030008B5024BE7
:10431C001B685B68019308BD4C02030008B5024B97
:10432C001B681B69019308BD4C02030008B5024BC6
:10433C001B685B69019308BD4C02030008B5024B76
:10434C001B689B69019308BD4C02030008B5024B26
:10435C001B68DB69019308BD4C02030008B5024BD6
:10436C001B681B6A019308BD4C02030008B5024B85
:10437C001B685B68019308BD2002030008B5024B63
:10438C001B68DB6A019308BD2002030008B5034BD0
:10439C001B68D3F88830019308BD0000200203008D
:1043AC0008B5034B1B68D3F89430019308BD00008B
:1043BC002002030008B5024B1B68DB6B019308BDA0
:1043CC004402030008B5024B1B685B68019308BDEF
:1043DC004002030008B5024B1B689B68019308BDA3
:1043EC004002030008B5024B1B68DB68019308BD53
:1043FC004002030008B5024B1B681B69019308BD02
:10440C004002030008B5024B1B685B69019308BDB1
:10441C004002030008B5024B1B689B69019308BD61
:10442C004002030008B5024B1B68DB69019308BD11
:10443C004002030008B5024B1B681B6A019308BDC0
:10444C004002030008B5024B1B681B6B019308BDAF
:10445C004002030008B5024B1B685B6B019308BD5F
:10446C004002030008B5024B1B681B6C019308BD8E
:10447C004002030008B5024B1B685B6C019308BD3E
:10448C004002030008B5024B1B681B68019308BD72
:10449C001C02030008B5024B1B685B68019308BD46
:1044AC001C02030008B5024B1B681B6C019308BD72
:1044BC001C02030008B5024B1B685B6C019308BD22
:1044CC001C020300024800230360FFF73FBE00BF3D
:1044DC00B8E60320002240681146FFF7ABBF00226C
:1044EC0040681146FFF7B6BF40680022FFF7AABF2D
:1044FC004068002281F00101FFF794BF002340685F
:10450C001A461946FFF786BF002340681A4619461B
:10451C00FFF778BF002240681146FFF76BBF0022FF
:10452C0040681146FFF756BF406800220221FFF792
:10453C0059BF002340681A46FFF744BF024B0322C1
:10454C005A60024A1A607047BCE6032050500B00B8
:10455C007047F8B5064615460C468F18BC4206D077
:10456C00336814F8011B9B6830469847F6E72846D9
:10457C00F8BD007C0022FFF721BE007C0021FFF774
:10458C0025BE007C0021FFF729BE007C0021FFF72F
:10459C002DBE007C0021FFF731BE10B5142104465E
:1045AC00FFF77BFD204610BD38B5044615464FF489
:1045BC007A730022C4E90123094B21740846236055
:1045CC002946FFF72BFEBF3008D16B69DB0705D5F9
:1045DC006868FFF75FFFE868FFF75CFF204638BDAF
:1045EC008C500B00704710B518210446FFF755FD91
:1045FC00204610BDF0B5037D062B8DB00E4600F1A4
:10460C0004074FF0000412D000F1080515F8011D45
:10461C000A22304600F059F9AF42044419D0002C5C
:10462C00F4D02E21304600F037F90444EEE72F2366
:10463C006A4639460A208DF80040FFF7F7FD6846B8
:10464C00FFF7E6FC33680246DB686946304698475C
:10465C00044620460DB0F0BD10B5054B04461122A2
:10466C0040F8043B002100F03BFC204610BD00BF8D
:10467C00B4500B000346074A10B543F8042B01F164
:10468C00100251F8044B43F8044B9142F9D10A78CB
:10469C001A7010BDB4500B0010B59DF8084044EAD8
:1046AC00032343EA024242EA016104234160037599
:1046BC0010BD000007B5064B0360CB7800938B78D8
:1046CC004A780978FFF7E8FF03B05DF804FB00BFF8
:1046DC00B4500B00014B024A1A607047C4E6032029
:1046EC00C0500B00002340681A46FFF76BBE4068B1
:1046FC0000220221FFF776BE002240681146FFF728
:10470C0069BE002240681146FFF774BE0023406862
:10471C001A461946FFF776BE002340681A4619461A
:10472C00FFF778BE40680021FFF79CBE406800216F
:10473C00FFF7A0BE4068002281F00101FFF772BEB6
:10474C0040680022FFF77EBE002240681146FFF74A
:10475C0081BE002240681146FFF76CBE2DE9F04384
:10476C0095B014460D460746FFF776FF00211C2234
:10477C000DA8009100F0B4FB40230C9320466B462F
:10478C000CAA0021FFF762FD044600284BD102461B
:10479C0001216868FFF72EFE0221804622466868D8
:1047AC00FFF728FE009E81462146002E3BD00029B3
:1047BC0039D17368022B03D00A2B11D0F669F4E7B8
:1047CC00B8F1000FFAD0716906A8043107ADFFF7F4
:1047DC0071FF0FCD3C1D0FC42B6823704146EDE7D4
:1047EC00B9F1000FEAD07469102201A800F078FB2F
:1047FC0006238DF8143001AD04F108031834186841
:10480C0059682A4603C20833A3421546F7D101A9B9
:10481C0006A807ADFFF72EFF0FCD3C1D0FC42B686C
:10482C0023704946CAE70098FFF708FD384615B0D3
:10483C00BDE8F083024B034A1A6000225A607047AD
:10484C00C8E60320CC500B00F8B506460D468F1871
:10485C000024BD420CD0336815F8011B9B68304610
:10486C009847031E01DB1C44F3E7002C08BF1C46D1
:10487C002046F8BD13B50446084659B10191FFF71F
:10488C00C7FB23680199DB680246204602B0BDE8ED
:10489C001040184702B010BD03689B68184738B524
:1048AC000D210546FFF7F8FF0A2104462846FFF7BD
:1048BC00F3FF204438BD38B50546FFF7DBFF04464F
:1048CC002846FFF7ECFF204438BD30B58BB00023F1
:1048DC00012A8DF8243098BF0A2209AC0D46B1FB91
:1048EC00F2F101FB125303F0FF03092B94BF303399
:1048FC003733DBB2AA4204F8013DEFD92146FFF76A
:10490C00B9FF0BB030BD0000014B00229A6070471C
:10491C00D0E6032010B5044608462170FFF79EFC34
:10492C0000236360204610BD054B02221A60054B24
:10493C00054A9A600020C3E90000FFF717BD00BFCD
:10494C00ECE60320E0E603200000FFFF024B1A68B0
:10495C00024B1A60704700BF3CE60320F0E60320D0
:10496C0070474174704708B5007CFFF7B7FC20EA2C
:10497C00E07008BD08B5007CFFF788FC20EAE07009
:10498C0008BD08B5007CFFF791FC40EAE07008BD5B
:10499C0008B5007CFFF782FC40EAE07008BD007CA3
:1049AC00FFF78CBC37B5457C04462DB1207C03B099
:1049BC00BDE83040FFF762BC007C0191FFF78EFC34
:1049CC0000280199F2DC284603B030BD10B5142143
:1049DC000446FFF762FB204610BD000010B54FF4F3
:1049EC007A730446084611460022C4E90123044B9D
:1049FC002360012320746374FFF778FC204610BDFC
:104A0C0024510B00417470477047704708B5002162
:104A1C00007CFFF793FC40EAE07008BD08B501216B
:104A2C00007CFFF78BFC40EAE07008BD08B5007C09
:104A3C00FFF77CFC20EAE07008BD08B5007CFFF7AE
:104A4C006DFC20EAE07008BD13B50446007C0191B2
:104A5C00FFF76CFC0028019901DC607C20B1207C04
:104A6C00FFF774FC20EAE07002B010BD007CFFF789
:104A7C0075BC10B514210446FFF70FFB204610BD82
:104A8C0010B54FF47A73044608460021C4E90113AB
:104A9C00044B23600123207463741146FFF72EFC32
:104AAC00204610BD54510B00007C0022FFF72EBC99
:104ABC0010B514220446002100F012FA204610BD55
:104ACC0010B50F4C88B003A8FFF7F2FF2178BFF3A5
:104ADC005B8F11F001010FD120460191FFF7DFFA36
:104AEC00019948B103AA0748FFF7CAFF2046FFF710
:104AFC00DBFA054800F0E0F9024808B010BD00BF31
:104B0C00F4E60320F8E60320154A0B000022406867
:104B1C001146FFF76FBC002240681146FFF78ABCB4
:104B2C00002240681146FFF795BC40680022FFF751
:104B3C0089BC4068002281F00101FFF773BC00239F
:104B4C0040681A461946FFF765BC002340681A46B0
:104B5C001946FFF757BC002240681146FFF73ABCD4
:104B6C00406800220221FFF73DBC002340681A4632
:104B7C00FFF728BC024B04225A60024A1A607047A5
:104B8C000CE7032084510B00014B1860704700BFE9
:104B9C0040E6032008B50B4B43B1FFF791FF0368C8
:104BAC001B699847002801DDAFF30080064B43B129
:104BBC0000F05CF903681B699847002801DDAFF32E
:104BCC00008008BD000000000000000008B5FFF7E1
:104BDC00E1FFFFF7CBFA014B186008BD28E7032073
:104BEC000548064A064908B5121A00F06BF9054B40
:104BFC00054A1A6008BD00BF00F4032004F403202A
:104C0C00E0520B0000F403201E1C279A07B500236A
:104C1C0000931A466FF07701FFF7C2FB03B05DF803
:104C2C0004FB000007B543880A2B08D0502B0BD18E
:104C3C00094B1B684BB103B05DF804EB1847FFF749
:104C4C00E5FF03B05DF804FB002300931A466FF0F8
:104C5C007701FFF7A5FBF4E718E7032010B512481E
:104C6C000021FFF727FC114B1A68114B9A42114B8C
:104C7C000CBF012200221A7001D0FFF7B1FFFFF721
:104C8C006DFA044600F034F90B4B13B12046AFF328
:104C9C00008000210848FFF78DFBBDE81040074855
:104CAC000021FFF773BB00BF954B0B0000F40320F2
:104CBC001E1C279A14E7032000000000314C0B0047
:104CCC00232813B502D9002002B010BDA0F10B03AC
:104CDC00022B1AD8174C2178BFF35B8F11F001010E
:104CEC000BD120460191FFF7DAF9019928B112484E
:104CFC00FFF710FE2046FFF7D7F90F4B1878FFF798
:104D0C00B5FA0028DFD10120DEE7012809D800F030
:104D1C006DF80021007CFFF779FA80F00100C0B239
:104D2C00D2E709380128EED800F0A0F8007CFFF794
:104D3C00CDFAF2E71CE7032020E70320232838B53F
:104D4C0004460D460AD8FF2908D0FFF7B9FF28B151
:104D5C0029462046BDE83840FFF710BA38BD38B5B3
:104D6C0004460D46FFF712FAFF2810D0062804D887
:104D7C004D2323FA00F0C30709D42046FFF7A0FF08
:104D8C0028B129462046BDE83840FFF707BA38BDA0
:104D9C0010B50446FFF7FAF9031FDBB2012B08D953
:104DAC002046FFF78DFF20B12046BDE81040FFF7ED
:104DBC00FDB9002010BD704738B50A4B03600123C4
:104DCC00044643610849202000F074F820256060F7
:104DDC000549A560284600F06DF8C4E90305204696
:104DEC0038BD00BF18000100B8510B0030B50E4D96
:104DFC002978BFF35B8F11F0010487B011D12846DD
:104E0C00FFF74DF968B16846FFF7D6FF6A462146B1
:104E1C000648FFF7C9FB2846FFF746F9044800F09F
:104E2C004BF8024807B030BD2CE7032030E70320D5
:104E3C00C34D0B007047000038B5044614252A46B4
:104E4C00002100F04DF82580402507492581284692
:104E5C00258200F02FF804496060284600F02AF8FB
:104E6C00E060204638BD00BFB8510B0030B50E4D88
:104E7C002978BFF35B8F11F0010487B011D128465C
:104E8C00FFF70DF968B101A8FFF7D6FF01AA21467B
:104E9C000648FFF7A3FD2846FFF706F9044800F083
:104EAC000BF8024807B030BD44E7032048E7032065
:104EBC00414E0B00FFF7EFB8002301461A46184687
:104ECC0000F044B80A44914200F1FF3300D170471E
:104EDC0010B511F8014B03F8014F9142F9D110BDF7
:104EEC0002440346934200D1704703F8011BF9E7D3
:104EFC0038B5104B1D68AB6B0446B3B91820FFF7DF
:104F0C00C1FA0246A86320B90B4B0C484221FFF7AB
:104F1C00C9FA0B490B4BC0E900130B4B83600B23F5
:104F2C00838100210120C2E90401AB6B00221C61CA
:104F3C005A6138BD40E60320B9510B00D0510B002B
:104F4C000E33CDAB34126DE6ECDE05002DE9F843E3
:104F5C00DFF8B8800646D8F800001F460D4691468B
:104F6C0000F056F8254B1C6834B9254C1C60254BB9
:104F7C0013B11B68C4F8883063681F2B07DDD8F8A1
:104F8C00000000F047F84FF0FF30BDE8F8834EB357
:104F9C00D4F8880088B91C4B23B9D8F8000000F06D
:104FAC0038F8F0E74FF48470FFF76CFA0028F4D06F
:104FBC000023C0E94033C4F88800636840F82390AC
:104FCC0001229A4000EB8301D0F800311343C0F862
:104FDC000031022EC1F8807002BFD0F804311343A7
:104FEC00C0F804316368D8F800005A1C02336260C0
:104FFC0044F8235000F00EF80020C6E7E8E7032041
:10500C005CE703200000000091440B00A4E60320A1
:10501C0070477047704700002D400B0069400B0033
:10502C0091400B0095400B00000000004275747419
:10503C006F6E20436C69636B6564000000000000B8
:10504C00000000003F450B0035450B002B450B00C5
:10505C0021450B0015450B0009450B0031470B0092
:10506C0039470B00FD440B00F5440B00EB440B00DF
:10507C00E1440B0069470B00000000000000000039
:10508C005D450B00A7450B007F450B005F450B00F2
:10509C0087450B008F450B0097450B009F450B0078
:1050AC00000000000000000001460B00F1450B0061
:1050BC00F3450B0061707000000000000000000060
:1050CC00F1460B00FB460B0005470B000F470B008E
:1050DC0019470B0025470B0031470B0039470B00D4
:1050EC0041470B004D470B0055470B005F470B002A
:1050FC0069470B0025592D256D2D25645425483AFB
:10510C00254D3A2553257A0061736374696D6500EA
:10511C0000000000000000006D490B00D9490B0095
:10512C00B1490B0055480B0081490B009D490B0000
:10513C008F490B00AB490B006F490B0073490B00F7
:10514C000000000000000000174A0B007F4A0B0013
:10515C00554A0B0055480B00474A0B00194A0B00E7
:10516C00294A0B00794A0B00394A0B00114A0B00F3
:10517C000000000000000000774B0B006D4B0B0093
:10518C00634B0B00194B0B00574B0B004B4B0B009D
:10519C0031470B0039470B003F4B0B00374B0B00D3
:1051AC002D4B0B00234B0B0069470B000052454560
:1051BC004E54206D616C6C6F632073756363656511
:1051CC00646564002F746D702F6A656E6B696E7305
:1051DC002D4743432D31302D706970656C696E65B8
:1051EC002D34385F32303230313132345F31363039
:1051FC00363138303633392F7372632F6E65776CD6
:10520C0069622F6E65776C69622F6C6962632F73AC
:10521C0074646C69622F72616E642E63000000000E
:10522C0031410B00D1440B0049450B00E1460B000A
:10523C0041480B0015490B0035490B0059490B002F
:04524C00814B0B0087
:10525000040000001400000003000000474E550049
:105260005B906CEBE959B2AC55EB9E76A97D594F3A
:0452700030958941AB
:1052740014510B0044E6032000000000000000006D
:10528400000000000000000000000000000000001A
:10529400000000000000000000000000000000000A
:1052A40000000000000000000000000000000000FA
:1052B40000000000000000000000000000000000EA
:1052C40000000000000000000000000000000000DA
:0C52D4000000000000000000ECE70320D8
:0452E00000000000CA
:1052EA0000000102030405060708090A0B0C0D0E4B
:1052FA000F101112131415161718191A1B1C1D1E3C
:04530A001F20280038
:04530E007856341287
:04000003B000401CED
:00000001FF
